{
  "contractName": "Affiliate",
  "abi": [
    {
      "inputs": [],
      "payable": false,
      "stateMutability": "nonpayable",
      "type": "constructor"
    },
    {
      "constant": false,
      "inputs": [
        {
          "name": "affiliateAddress",
          "type": "address"
        },
        {
          "name": "affid",
          "type": "string"
        }
      ],
      "name": "registerAffiliate",
      "outputs": [
        {
          "name": "",
          "type": "address"
        }
      ],
      "payable": false,
      "stateMutability": "nonpayable",
      "type": "function"
    },
    {
      "constant": false,
      "inputs": [
        {
          "name": "affid",
          "type": "string"
        },
        {
          "name": "commission",
          "type": "uint256"
        },
        {
          "name": "orderId",
          "type": "string"
        }
      ],
      "name": "addOrder",
      "outputs": [],
      "payable": false,
      "stateMutability": "nonpayable",
      "type": "function"
    },
    {
      "constant": false,
      "inputs": [
        {
          "name": "affid",
          "type": "string"
        },
        {
          "name": "commission",
          "type": "uint256"
        }
      ],
      "name": "makePayment",
      "outputs": [],
      "payable": false,
      "stateMutability": "nonpayable",
      "type": "function"
    },
    {
      "constant": false,
      "inputs": [
        {
          "name": "affid",
          "type": "string"
        },
        {
          "name": "commission",
          "type": "uint256"
        }
      ],
      "name": "confirmPayment",
      "outputs": [],
      "payable": false,
      "stateMutability": "nonpayable",
      "type": "function"
    },
    {
      "constant": true,
      "inputs": [],
      "name": "getRevenue",
      "outputs": [
        {
          "name": "",
          "type": "uint256"
        }
      ],
      "payable": false,
      "stateMutability": "view",
      "type": "function"
    },
    {
      "constant": true,
      "inputs": [],
      "name": "getPayoutBalance",
      "outputs": [
        {
          "name": "",
          "type": "uint256"
        }
      ],
      "payable": false,
      "stateMutability": "view",
      "type": "function"
    },
    {
      "constant": true,
      "inputs": [],
      "name": "getPaymentPending",
      "outputs": [
        {
          "name": "",
          "type": "uint256"
        }
      ],
      "payable": false,
      "stateMutability": "view",
      "type": "function"
    },
    {
      "constant": true,
      "inputs": [],
      "name": "getLastUpdatedAction",
      "outputs": [
        {
          "name": "",
          "type": "string"
        }
      ],
      "payable": false,
      "stateMutability": "view",
      "type": "function"
    },
    {
      "constant": true,
      "inputs": [],
      "name": "getTotalOrders",
      "outputs": [
        {
          "name": "",
          "type": "uint256"
        }
      ],
      "payable": false,
      "stateMutability": "view",
      "type": "function"
    },
    {
      "constant": true,
      "inputs": [
        {
          "name": "index",
          "type": "uint256"
        }
      ],
      "name": "getOrder",
      "outputs": [
        {
          "name": "",
          "type": "string"
        }
      ],
      "payable": false,
      "stateMutability": "view",
      "type": "function"
    }
  ],
  "bytecode": "0x6060604052341561000f57600080fd5b336000806101000a81548173ffffffffffffffffffffffffffffffffffffffff021916908373ffffffffffffffffffffffffffffffffffffffff1602179055506111b88061005e6000396000f3006060604052600436106100a4576000357c0100000000000000000000000000000000000000000000000000000000900463ffffffff16806309153bf8146100a95780632a5f5281146100d257806334b5523514610138578063375f16a7146101f457806348d7d9eb1461021d57806348d8f2401461024657806392629adf146102ef578063afc53e5714610318578063d09ef2411461037e578063d55f2dd31461041a575b600080fd5b34156100b457600080fd5b6100bc6104a8565b6040518082815260200191505060405180910390f35b34156100dd57600080fd5b610136600480803590602001908201803590602001908080601f016020809104026020016040519081016040528093929190818152602001838380828437820191505050505050919080359060200190919050506104f2565b005b341561014357600080fd5b6101b2600480803573ffffffffffffffffffffffffffffffffffffffff1690602001909190803590602001908201803590602001908080601f016020809104026020016040519081016040528093929190818152602001838380828437820191505050505050919050506106a5565b604051808273ffffffffffffffffffffffffffffffffffffffff1673ffffffffffffffffffffffffffffffffffffffff16815260200191505060405180910390f35b34156101ff57600080fd5b6102076108f4565b6040518082815260200191505060405180910390f35b341561022857600080fd5b610230610941565b6040518082815260200191505060405180910390f35b341561025157600080fd5b6102ed600480803590602001908201803590602001908080601f0160208091040260200160405190810160405280939291908181526020018383808284378201915050505050509190803590602001909190803590602001908201803590602001908080601f0160208091040260200160405190810160405280939291908181526020018383808284378201915050505050509190505061098b565b005b34156102fa57600080fd5b610302610b6a565b6040518082815260200191505060405180910390f35b341561032357600080fd5b61037c600480803590602001908201803590602001908080601f01602080910402602001604051908101604052809392919081815260200183838082843782019150505050505091908035906020019091905050610bb4565b005b341561038957600080fd5b61039f6004808035906020019091905050610d55565b6040518080602001828103825283818151815260200191508051906020019080838360005b838110156103df5780820151818401526020810190506103c4565b50505050905090810190601f16801561040c5780820380516001836020036101000a031916815260200191505b509250505060405180910390f35b341561042557600080fd5b61042d610e57565b6040518080602001828103825283818151815260200191508051906020019080838360005b8381101561046d578082015181840152602081019050610452565b50505050905090810190601f16801561049a5780820380516001836020036101000a031916815260200191505b509250505060405180910390f35b6000600160003373ffffffffffffffffffffffffffffffffffffffff1673ffffffffffffffffffffffffffffffffffffffff16815260200190815260200160002060010154905090565b60008060009054906101000a900473ffffffffffffffffffffffffffffffffffffffff1673ffffffffffffffffffffffffffffffffffffffff163373ffffffffffffffffffffffffffffffffffffffff1614151561054f57600080fd5b600160006002856040518082805190602001908083835b60208310151561058b5780518252602082019150602081019050602083039250610566565b6001836020036101000a038019825116818451168082178552505050505050905001915050908152602001604051809103902060009054906101000a900473ffffffffffffffffffffffffffffffffffffffff1673ffffffffffffffffffffffffffffffffffffffff1673ffffffffffffffffffffffffffffffffffffffff16815260200190815260200160002090508181600101541015151561062e57600080fd5b8181600101600082825403925050819055508181600201600082825401925050819055506040805190810160405280600f81526020017f535441525445445f5041594d454e54000000000000000000000000000000000081525081600301908051906020019061069f929190610f3f565b50505050565b60008060009054906101000a900473ffffffffffffffffffffffffffffffffffffffff1673ffffffffffffffffffffffffffffffffffffffff163373ffffffffffffffffffffffffffffffffffffffff1614151561070257600080fd5b60a0604051908101604052806000815260200160008152602001600081526020016040805190810160405280600881526020017f52454749535445520000000000000000000000000000000000000000000000008152508152602001600060405180591061076d5750595b9080825280602002602001820160405280156107a357816020015b610790610fbf565b8152602001906001900390816107885790505b50815250600160008573ffffffffffffffffffffffffffffffffffffffff1673ffffffffffffffffffffffffffffffffffffffff1681526020019081526020016000206000820151816000015560208201518160010155604082015181600201556060820151816003019080519060200190610820929190610fd3565b50608082015181600401908051906020019061083d929190611053565b50905050826002836040518082805190602001908083835b60208310151561087a5780518252602082019150602081019050602083039250610855565b6001836020036101000a038019825116818451168082178552505050505050905001915050908152602001604051809103902060006101000a81548173ffffffffffffffffffffffffffffffffffffffff021916908373ffffffffffffffffffffffffffffffffffffffff16021790555033905092915050565b6000600160003373ffffffffffffffffffffffffffffffffffffffff1673ffffffffffffffffffffffffffffffffffffffff16815260200190815260200160002060040180549050905090565b6000600160003373ffffffffffffffffffffffffffffffffffffffff1673ffffffffffffffffffffffffffffffffffffffff16815260200190815260200160002060000154905090565b60008060009054906101000a900473ffffffffffffffffffffffffffffffffffffffff1673ffffffffffffffffffffffffffffffffffffffff163373ffffffffffffffffffffffffffffffffffffffff161415156109e857600080fd5b600160006002866040518082805190602001908083835b602083101515610a2457805182526020820191506020810190506020830392506109ff565b6001836020036101000a038019825116818451168082178552505050505050905001915050908152602001604051809103902060009054906101000a900473ffffffffffffffffffffffffffffffffffffffff1673ffffffffffffffffffffffffffffffffffffffff1673ffffffffffffffffffffffffffffffffffffffff16815260200190815260200160002090508281600001600082825401925050819055508281600101600082825401925050819055506040805190810160405280600581526020017f4f52444552000000000000000000000000000000000000000000000000000000815250816003019080519060200190610b25929190610f3f565b50806004018054806001018281610b3c91906110b3565b916000526020600020900160008490919091509080519060200190610b62929190610f3f565b505050505050565b6000600160003373ffffffffffffffffffffffffffffffffffffffff1673ffffffffffffffffffffffffffffffffffffffff16815260200190815260200160002060020154905090565b60008060009054906101000a900473ffffffffffffffffffffffffffffffffffffffff1673ffffffffffffffffffffffffffffffffffffffff163373ffffffffffffffffffffffffffffffffffffffff16141515610c1157600080fd5b600160006002856040518082805190602001908083835b602083101515610c4d5780518252602082019150602081019050602083039250610c28565b6001836020036101000a038019825116818451168082178552505050505050905001915050908152602001604051809103902060009054906101000a900473ffffffffffffffffffffffffffffffffffffffff1673ffffffffffffffffffffffffffffffffffffffff1673ffffffffffffffffffffffffffffffffffffffff168152602001908152602001600020905081816002015410151515610cf057600080fd5b8181600201600082825403925050819055506040805190810160405280601181526020017f434f4d504c455445445f5041594d454e54000000000000000000000000000000815250816003019080519060200190610d4f929190610f3f565b50505050565b610d5d6110df565b600160003373ffffffffffffffffffffffffffffffffffffffff1673ffffffffffffffffffffffffffffffffffffffff16815260200190815260200160002060040182815481101515610dac57fe5b90600052602060002090018054600181600116156101000203166002900480601f016020809104026020016040519081016040528092919081815260200182805460018160011615610100020316600290048015610e4b5780601f10610e2057610100808354040283529160200191610e4b565b820191906000526020600020905b815481529060010190602001808311610e2e57829003601f168201915b50505050509050919050565b610e5f6110df565b600160003373ffffffffffffffffffffffffffffffffffffffff1673ffffffffffffffffffffffffffffffffffffffff1681526020019081526020016000206003018054600181600116156101000203166002900480601f016020809104026020016040519081016040528092919081815260200182805460018160011615610100020316600290048015610f355780601f10610f0a57610100808354040283529160200191610f35565b820191906000526020600020905b815481529060010190602001808311610f1857829003601f168201915b5050505050905090565b828054600181600116156101000203166002900490600052602060002090601f016020900481019282601f10610f8057805160ff1916838001178555610fae565b82800160010185558215610fae579182015b82811115610fad578251825591602001919060010190610f92565b5b509050610fbb91906110f3565b5090565b602060405190810160405280600081525090565b828054600181600116156101000203166002900490600052602060002090601f016020900481019282601f1061101457805160ff1916838001178555611042565b82800160010185558215611042579182015b82811115611041578251825591602001919060010190611026565b5b50905061104f91906110f3565b5090565b8280548282559060005260206000209081019282156110a2579160200282015b828111156110a1578251829080519060200190611091929190610fd3565b5091602001919060010190611073565b5b5090506110af9190611118565b5090565b8154818355818115116110da578183600052602060002091820191016110d99190611118565b5b505050565b602060405190810160405280600081525090565b61111591905b808211156111115760008160009055506001016110f9565b5090565b90565b61114191905b8082111561113d57600081816111349190611144565b5060010161111e565b5090565b90565b50805460018160011615610100020316600290046000825580601f1061116a5750611189565b601f01602090049060005260206000209081019061118891906110f3565b5b505600a165627a7a723058209d01ee254b18fc35e713eecaabc2dec05687c8cbe16dffcc55638882f4bce90c0029",
  "source": "pragma solidity ^0.4.17;\n\ncontract Affiliate {\n\n    address owner;\n\n    function Affiliate() public {\n        owner = msg.sender;\n    }\n\n    struct AffiliateData {\n        uint256 totalRevenueGenerated;\n        uint256 payOutBalanace;\n        uint256 paymentPending;\n        string lastUpdatedAction;\n        string[] orderIds;\n    }\n    mapping (address=>AffiliateData) AFFILIATE_DATA;\n    mapping (string=>address) AFFID_TO_ADDRESS_MAPPING;\n    \n\n    /**\n     * Registers an affiliate\n     */\n    function registerAffiliate(address affiliateAddress, string affid) public returns (address) {\n        //Register Affiliate\n        require(msg.sender == owner);\n        AFFILIATE_DATA[affiliateAddress] = AffiliateData(0, 0, 0, \"REGISTER\", new string[](0));\n        AFFID_TO_ADDRESS_MAPPING[affid] = affiliateAddress;\n        return msg.sender;\n    }\n\n    /**\n     * Adds order data for an afiliate\n     */\n    function addOrder(string affid, uint256 commission, string orderId) public {\n        //Only owner of smart contract can add affiliate order\n        require(msg.sender == owner);\n        AffiliateData storage affiliateData = AFFILIATE_DATA[AFFID_TO_ADDRESS_MAPPING[affid]];\n        affiliateData.totalRevenueGenerated += commission;\n        affiliateData.payOutBalanace += commission;\n        affiliateData.lastUpdatedAction = \"ORDER\";\n        affiliateData.orderIds.push(orderId);\n    }\n\n    /**\n     * Makes Payment of specified commission\n     */\n    function makePayment(string affid, uint256 commission) public {\n        require(msg.sender == owner);\n        AffiliateData storage affiliateData = AFFILIATE_DATA[AFFID_TO_ADDRESS_MAPPING[affid]];\n        require(affiliateData.payOutBalanace >= commission);\n        affiliateData.payOutBalanace -= commission;\n        affiliateData.paymentPending += commission;\n        affiliateData.lastUpdatedAction = \"STARTED_PAYMENT\";\n    }\n\n    /**\n     * Confirms Payment of specified commission\n     */\n    function confirmPayment(string affid, uint256 commission) public {\n        require(msg.sender == owner);\n        AffiliateData storage affiliateData = AFFILIATE_DATA[AFFID_TO_ADDRESS_MAPPING[affid]];\n        require(affiliateData.paymentPending >= commission);\n        affiliateData.paymentPending -= commission;\n        affiliateData.lastUpdatedAction = \"COMPLETED_PAYMENT\";\n    }\n\n        /**\n     * Gives out affiliate's data\n     */\n    function getRevenue() public view returns (uint256) {\n        return AFFILIATE_DATA[msg.sender].totalRevenueGenerated;\n    }\n\n    function getPayoutBalance() public view returns (uint256) {\n        return AFFILIATE_DATA[msg.sender].payOutBalanace;\n    }\n\n    function getPaymentPending() public view returns (uint256) {\n        return AFFILIATE_DATA[msg.sender].paymentPending;\n    }\n\n    function getLastUpdatedAction() public view returns (string) {\n        return AFFILIATE_DATA[msg.sender].lastUpdatedAction;\n    }\n    \n    function getTotalOrders() public view returns (uint) {\n        return AFFILIATE_DATA[msg.sender].orderIds.length;\n    }\n    \n    function getOrder(uint index) public view returns (string) {\n        return AFFILIATE_DATA[msg.sender].orderIds[index];\n    }\n\n\n}",
  "sourcePath": "/Users/rajat.mathur/git/blockchain-handson/affiliate/truffle/contracts/Affiliate.sol",
  "compiler": {
    "name": "solc",
    "version": "0.4.19+commit.c4cbbb05.Emscripten.clang"
  },
  "schemaVersion": "1.0.1",
  "updatedAt": "2018-04-03T06:40:24.359Z"
}